201609020030001500000000000000000018000000000000000000188000000000020129063662AGUA MARINA S.A. CONCURSO PREV000000000000121000000000000000000000000000000000000000000000000000000000000000000000000000000000000000000000000000000000PES00010000001 00000000000000020160902
201609020030001500000000000000000019000000000000000000198000000000020204045942ROSETTI VICTOR JAVIER         000000000054610000000000000000000000000000000000000000000000000000000000000000000000002580000000000000000000000000000000PES00010000001 00000000000000020160902
201609060010000100000000000000042804000000000000000428048000000000020129063662AGUA MARINA S.A. CONCURSO PREV000000000347472000000000000000000000000000000000000000000000000000000000000000000000016416000000000000000000000000000000PES00010000001 00000000000000020160906
