201707110020000100000000000000042833000000000000000428338000000000030700882876PESQUERA CRUZ DEL SUR  S.A.   000000000001000000000000000000000000000000000000000000000000000000000000000000000000000000000000000000000000000000000000PES00010000001000000000000000020170711
201707160070000100000000000000001254000000000000000012549900000000000012456488CLIENTE OCASIONAL             000000000001000000000000000000000000000000000000000000000000000000000000000000000000000000000000000000000000000000000000PES00010000001000000000000000020170716
201707160070000100000000000000001255000000000000000012559900000000000012456488CLIENTE OCASIONAL             000000000001000000000000000000000000000000000000000000000000000000000000000000000000000000000000000000000000000000000000PES00010000001000000000000000020170716
201707190060000500000000000000000156000000000000000001569900000000000012456488CLIENTE OCASIONAL             000000000025600000000000000000000000000000000000000000000000000000000000000000000000000000000000000000000000000000000000PES00010000001000000000000000000000000
201707220060000500000000000000000157000000000000000001579600000000000011111111CLIENTE OCASIONAL             000000001074416000000000000000000000000000000000000000000000000000000000000000000000000000000000000000000000000000000000PES00010000001000000000000000020170722
201707220060000500000000000000000158000000000000000001589900000000000012456488CLIENTE OCASIONAL             000000000054208000000000000000000000000000000000000000000000000000000000000000000000000000000000000000000000000000000000PES00010000001000000000000000000000000
201707230020000100000000000000042834000000000000000428348000000000030700882876PESQUERA CRUZ DEL SUR  S.A.   000000000003000000000000000000000000000000000000000000000000000000000000000000000000000000000000000000000000000000000000PES00010000001000000000000000020170723
201707230020000100000000000000042835000000000000000428358000000000030700882876PESQUERA CRUZ DEL SUR  S.A.   000000000002000000000000000000000000000000000000000000000000000000000000000000000000000000000000000000000000000000000000PES00010000001000000000000000020170723
201707230070000100000000000000001264000000000000000012649900000000000012456488CLIENTE OCASIONAL             000000000002000000000000000000000000000000000000000000000000000000000000000000000000000000000000000000000000000000000000PES00010000001000000000000000020170723
201707230060000500000000000000000159000000000000000001599900000000000012456488CLIENTE OCASIONAL             000000000002000000000000000000000000000000000000000000000000000000000000000000000000000000000000000000000000000000000000PES00010000001000000000000000000000000
201707230060000500000000000000000160000000000000000001609900000000000012456488CLIENTE OCASIONAL             000000000005000000000000000000000000000000000000000000000000000000000000000000000000000000000000000000000000000000000000PES00010000001000000000000000000000000
201707230060000500000000000000000161000000000000000001619900000000000012456488CLIENTE OCASIONAL             000000000005000000000000000000000000000000000000000000000000000000000000000000000000000000000000000000000000000000000000PES00010000001000000000000000000000000
201707230060000500000000000000000162000000000000000001629900000000000012456488CLIENTE OCASIONAL             000000000005000000000000000000000000000000000000000000000000000000000000000000000000000000000000000000000000000000000000PES00010000001000000000000000020170723
201707230060000500000000000000000163000000000000000001639900000000000012456488CLIENTE OCASIONAL             000000000005000000000000000000000000000000000000000000000000000000000000000000000000000000000000000000000000000000000000PES00010000001000000000000000020170723
201707240060000500000000000000000164000000000000000001649900000000000012456488CLIENTE OCASIONAL             000000000005000000000000000000000000000000000000000000000000000000000000000000000000000000000000000000000000000000000000PES00010000001000000000000000000000000
201707250060000500000000000000000165000000000000000001659900000000000012456488CLIENTE OCASIONAL             000000000003000000000000000000000000000000000000000000000000000000000000000000000000000000000000000000000000000000000000PES00010000001000000000000000020170725
201707250060000500000000000000000166000000000000000001669900000000000012456488CLIENTE OCASIONAL             000000000002000000000000000000000000000000000000000000000000000000000000000000000000000000000000000000000000000000000000PES00010000001000000000000000020170725
201707250060000500000000000000000167000000000000000001679900000000000012456488CLIENTE OCASIONAL             000000000002000000000000000000000000000000000000000000000000000000000000000000000000000000000000000000000000000000000000PES00010000001000000000000000020170725
201707250060000500000000000000000168000000000000000001689900000000000012456488CLIENTE OCASIONAL             000000000001000000000000000000000000000000000000000000000000000000000000000000000000000000000000000000000000000000000000PES00010000001000000000000000020170725
201707270020000100000000000000042836000000000000000428368000000000030573796760MARVIC S.R.L.                 000000000002000000000000000000000000000000000000000000000000000000000000000000000000000000000000000000000000000000000000PES00010000001000000000000000020170727
201707270020000100000000000000042837000000000000000428378000000000030573796760MARVIC S.R.L.                 000000000001000000000000000000000000000000000000000000000000000000000000000000000000000000000000000000000000000000000000PES00010000001000000000000000020170727
201707270070000100000000000000001266000000000000000012669900000000000012456488CLIENTE OCASIONAL             000000000001000000000000000000000000000000000000000000000000000000000000000000000000000000000000000000000000000000000000PES00010000001000000000000000020170727
201707280060000500000000000000000169000000000000000001699900000000000012456488CLIENTE OCASIONAL             000000000001000000000000000000000000000000000000000000000000000000000000000000000000000000000000000000000000000000000000PES00010000001000000000000000020170728
