0306010CUIT003025252525900000000000248597706CH010201808302018083020180831001700010101022500000000105                        20180830                                                                                                                                                                                                                                                                                                                                                                                                                                                                                                                                                                                                                                                                                                                                              
0306020CUIT0030252525259000001000000000000712000050920000013083919                                            0000000000000                                            C:\Proyectos De           0000000000000                                        CUI3071535565100010000000000000000  0000000000000000                                                                                                                                                                                                                                                                                                                                                                                                                                                                                                                                                                        
0306025CUIT0030252525259000002000000000000000000050920000006580000                                                                                                                             N                                                          000000000000000000000020180801CH 1 0000000000000                                                                                                                                                                                                                                                                                                                                                                                                                                                                                                                                                                          
0306025CUIT0030252525259000003000000000000000000050920000006503919                                                                                                                             N                                                          000000000000000000000020180802CH 1 0000000000000                                                                                                                                                                                                                                                                                                                                                                                                                                                                                                                                                                          
0306040CUIT0030252525259000004  20180801FACTURA                  CR 0000000000000000013191360  000000000000000000000000000000000000                                                                                                                                                                                                                                                                                                                                                                                                                                                                                                                                                                                                                                                                                                                                               
0306060CUIT0030252525259000005X000100004451 000230715355651                                                                                                                                                                                                                                                                                                                                                                                                                                                                                                                                                                                                                                                                                                                                                                                                                       
0306070CUIT003025252525900000620180801Ret.IIBB Bs.As                        00000001074410000011937882000900000000107441000000000000000000000000000000000000CR                                                                                                                                                                                                                                                                                                                                                                                                                                                                                                                                                                                                                                                                                                                    
0306090CUIT0030252525259000007C:\Proyectos De0000000000007121CUI30715355651SAGITARIO GROUP MDP S.A                    000000000000000000000000000000000000030715355651MORENO 3050                                                        02080                                                                                                              00                                                                                            00000000                            00000000                            00000000                                                                                                    00005092                                                                                                                                                                                                                         
0306020CUIT0030252525259000008000000000000568000050930000000300000                                            0000000000000                                            C:\Proyectos De           0000000000000                                        CUI3064050252100010000000000000000  0000000000000000                                                                                                                                                                                                                                                                                                                                                                                                                                                                                                                                                                        
0306040CUIT0030252525259000009  20180801FACTURA                  CR 0000000000000000000300000  000000000000000000000000000000000000                                                                                                                                                                                                                                                                                                                                                                                                                                                                                                                                                                                                                                                                                                                                               
0306060CUIT0030252525259000010X000100004452 000230640502521                                                                                                                                                                                                                                                                                                                                                                                                                                                                                                                                                                                                                                                                                                                                                                                                                       
0306070CUIT003025252525900001120180801Ret.IIBB Bs.As                        00000000000000000000300000000000000000000000000000000000000000000000000000000000CR                                                                                                                                                                                                                                                                                                                                                                                                                                                                                                                                                                                                                                                                                                                    
0306090CUIT0030252525259000012C:\Proyectos De0000000000005681CUI30640502521RADIO BRISAS                               000000000000000000000000000000000000030640502521SANTA FE 31                                                        02080                                                                                                              00                                                                                            00000000                            00000000                            00000000                                                                                                    00005093                                                                                                                                                                                                                         
0306020CUIT0030252525259000013000000000000027000050940000000116723                                            0000000000000                                            C:\Proyectos De           0000000000000                                        CUI2023296633600010000000000000000  0000000000000000                                                                                                                                                                                                                                                                                                                                                                                                                                                                                                                                                                        
0306040CUIT0030252525259000014  20180801FACTURA                  CR 0000000000000000000118500  000000000000000000000000000000000000                                                                                                                                                                                                                                                                                                                                                                                                                                                                                                                                                                                                                                                                                                                                               
0306060CUIT0030252525259000015X000100004453 000220232966336                                                                                                                                                                                                                                                                                                                                                                                                                                                                                                                                                                                                                                                                                                                                                                                                                       
0306070CUIT003025252525900001620180801Ret.IIBB Bs.As                        00000000017770000000118500001500000000001777000000000000000000000000000000000000CR                                                                                                                                                                                                                                                                                                                                                                                                                                                                                                                                                                                                                                                                                                                    
0306090CUIT0030252525259000017C:\Proyectos De0000000000000271CUI20232966336MERCADO CARLOS ALBERTO                     000000000000000000000000000000000000020232966336URUGUAY 2439                                                       02080                                                                                                              00                                                                                            00000000                            00000000                            00000000                                                                                                    00005094                                                                                                                                                                                                                         
0306020CUIT0030252525259000018000000000000583000051710000000363000                                            0000000000000                                            C:\Proyectos De           0000000000000                                        CUI2022522996200010000000000000000  0000000000000000                                                                                                                                                                                                                                                                                                                                                                                                                                                                                                                                                                        
0306040CUIT0030252525259000019  20180802FACTURA                  CR 0000000000000000000363000  000000000000000000000000000000000000                                                                                                                                                                                                                                                                                                                                                                                                                                                                                                                                                                                                                                                                                                                                               
0306060CUIT0030252525259000020X000100004524 000220225229962                                                                                                                                                                                                                                                                                                                                                                                                                                                                                                                                                                                                                                                                                                                                                                                                                       
0306070CUIT003025252525900002120180802Ret.IIBB Bs.As                        00000000000000000000300000000000000000000000000000000000000000000000000000000000CR                                                                                                                                                                                                                                                                                                                                                                                                                                                                                                                                                                                                                                                                                                                    
0306090CUIT0030252525259000022C:\Proyectos De0000000000005831CUI20225229962STANZIONE PABLO MARCELO                    000000000000000000000000000000000000020225229962PRIMERA JUNTA 960                                                  02080                                                                                                              00                                                                                            00000000                            00000000                            00000000                                                                                                    00005171                                                                                                                                                                                                                         
0306020CUIT0030252525259000023000000000000128000050960000005843060                                            0000000000000                                            C:\Proyectos De           0000000000000                                        CUI3056976625300010000000000000000  0000000000000000                                                                                                                                                                                                                                                                                                                                                                                                                                                                                                                                                                        
0306025CUIT0030252525259000024000000000000000000050960000005143000                                                                                                                             N                                                          000000000000000000000020181119CH 1 0000000000000                                                                                                                                                                                                                                                                                                                                                                                                                                                                                                                                                                          
0306025CUIT0030252525259000025000000000000000000050960000000700060                                                                                                                             N                                                          000000000000000000000020180812CH 1 0000000000000                                                                                                                                                                                                                                                                                                                                                                                                                                                                                                                                                                          
0306040CUIT0030252525259000026  20180807FACTURA                  CR 0000000000000000000743264  000000000000000000000000000000000000                                                                                                                                                                                                                                                                                                                                                                                                                                                                                                                                                                                                                                                                                                                                               
0306040CUIT0030252525259000027  20180807FACTURA                  CR 0000000000000000005233366  000000000000000000000000000000000000                                                                                                                                                                                                                                                                                                                                                                                                                                                                                                                                                                                                                                                                                                                                               
0306060CUIT0030252525259000028X000100004455 000230569766253                                                                                                                                                                                                                                                                                                                                                                                                                                                                                                                                                                                                                                                                                                                                                                                                                       
0306070CUIT003025252525900002920180807Ret.IIBB Bs.As                        00000001335700000000606746002500000000015169000000000000000000000000000000000000CR                                                                                                                                                                                                                                                                                                                                                                                                                                                                                                                                                                                                                                                                                                                    
0306070CUIT003025252525900003020180807Ret.IIBB Bs.As                        00000001335700000004736078002500000000118402000000000000000000000000000000000000CR                                                                                                                                                                                                                                                                                                                                                                                                                                                                                                                                                                                                                                                                                                                    
0306090CUIT0030252525259000031C:\Proyectos De0000000000001281CUI30569766253INGENIERIA GASTRONOMICA S.A.               000000000000000000000000000000000000030569766253CALLE 93                                                           02080                                                                                                              00                                                                                            00000000                            00000000                            00000000                                                                                                    00005096                                                                                                                                                                                                                         
0306020CUIT0030252525259000032000000000000027000050970000000067965                                            0000000000000                                            C:\Proyectos De           0000000000000                                        CUI2023296633600010000000000000000  0000000000000000                                                                                                                                                                                                                                                                                                                                                                                                                                                                                                                                                                        
0306040CUIT0030252525259000033  20180808FACTURA                  CR 0000000000000000000069000  000000000000000000000000000000000000                                                                                                                                                                                                                                                                                                                                                                                                                                                                                                                                                                                                                                                                                                                                               
0306060CUIT0030252525259000034X000100004456 000220232966336                                                                                                                                                                                                                                                                                                                                                                                                                                                                                                                                                                                                                                                                                                                                                                                                                       
0306070CUIT003025252525900003520180808Ret.IIBB Bs.As                        00000000010350000000069000001500000000001035000000000000000000000000000000000000CR                                                                                                                                                                                                                                                                                                                                                                                                                                                                                                                                                                                                                                                                                                                    
0306090CUIT0030252525259000036C:\Proyectos De0000000000000271CUI20232966336MERCADO CARLOS ALBERTO                     000000000000000000000000000000000000020232966336URUGUAY 2439                                                       02080                                                                                                              00                                                                                            00000000                            00000000                            00000000                                                                                                    00005097                                                                                                                                                                                                                         
0306020CUIT0030252525259000037000000000000045000050980000002578915                                            0000000000000                                            C:\Proyectos De           0000000000000                                        CUI2305084216900010000000000000000  0000000000000000                                                                                                                                                                                                                                                                                                                                                                                                                                                                                                                                                                        
0306025CUIT0030252525259000038000000000000000000050980000001834400                                                                                                                             N                                                          000000000000000000000020180920CH 1 0000000000000                                                                                                                                                                                                                                                                                                                                                                                                                                                                                                                                                                          
0306025CUIT0030252525259000039000000000000000000050980000000657688                                                                                                                             N                                                          000000000000000000000020180922CH 1 0000000000000                                                                                                                                                                                                                                                                                                                                                                                                                                                                                                                                                                          
0306025CUIT0030252525259000040000000000000000000050980000000086827                                                                                                                             N                                                          000000000000000000000020180821CH 1 0000000000000                                                                                                                                                                                                                                                                                                                                                                                                                                                                                                                                                                          
0306040CUIT0030252525259000041  20180808FACTURA                  CR 0000000000000000001880773  000000000000000000000000000000000000                                                                                                                                                                                                                                                                                                                                                                                                                                                                                                                                                                                                                                                                                                                                               
0306040CUIT0030252525259000042  20180808FACTURA                  CR 0000000000000000000739245  000000000000000000000000000000000000                                                                                                                                                                                                                                                                                                                                                                                                                                                                                                                                                                                                                                                                                                                                               
0306060CUIT0030252525259000043X000100004457 000223050842169                                                                                                                                                                                                                                                                                                                                                                                                                                                                                                                                                                                                                                                                                                                                                                                                                       
0306070CUIT003025252525900004420180808Ret.IIBB Bs.As                        00000000411030000001679750001750000000029396000000000000000000000000000000000000CR                                                                                                                                                                                                                                                                                                                                                                                                                                                                                                                                                                                                                                                                                                                    
0306070CUIT003025252525900004520180808Ret.IIBB Bs.As                        00000000411030000000669000001750000000011708000000000000000000000000000000000000CR                                                                                                                                                                                                                                                                                                                                                                                                                                                                                                                                                                                                                                                                                                                    
0306090CUIT0030252525259000046C:\Proyectos De0000000000000451CUI23050842169JORGE LUCAS PEREZ                          000000000000000000000000000000000000023050842169CHILE 1485                                                         02080                                                                                                              00                                                                                            00000000                            00000000                            00000000                                                                                                    00005098                                                                                                                                                                                                                         
0306020CUIT0030252525259000047000000000000005000050990000005706966                                            0000000000000                                            C:\Proyectos De           0000000000000                                        CUI3053774574200010000000000000000  0000000000000000                                                                                                                                                                                                                                                                                                                                                                                                                                                                                                                                                                        
0306025CUIT0030252525259000048000000000000000000050990000001834400                                                                                                                             N                                                          000000000000000000000020180820CH 1 0000000000000                                                                                                                                                                                                                                                                                                                                                                                                                                                                                                                                                                          
0306025CUIT0030252525259000049000000000000000000050990000001834471                                                                                                                             N                                                          000000000000000000000020180907CH 1 0000000000000                                                                                                                                                                                                                                                                                                                                                                                                                                                                                                                                                                          
0306025CUIT0030252525259000050000000000000000000050990000001834400                                                                                                                             N                                                          000000000000000000000020180917CH 1 0000000000000                                                                                                                                                                                                                                                                                                                                                                                                                                                                                                                                                                          
0306025CUIT0030252525259000051000000000000000000050990000000203695                                                                                                                             N                                                          000000000000000000000020180913CH 1 0000000000000                                                                                                                                                                                                                                                                                                                                                                                                                                                                                                                                                                          
0306040CUIT0030252525259000052  20180808FACTURA                  CR 0000000000000000000377002  000000000000000000000000000000000000                                                                                                                                                                                                                                                                                                                                                                                                                                                                                                                                                                                                                                                                                                                                               
0306040CUIT0030252525259000053  20180808FACTURA                  CR 0000000000000000000153689  000000000000000000000000000000000000                                                                                                                                                                                                                                                                                                                                                                                                                                                                                                                                                                                                                                                                                                                                               
0306040CUIT0030252525259000054  20180808FACTURA                  CR 0000000000000000000470060  000000000000000000000000000000000000                                                                                                                                                                                                                                                                                                                                                                                                                                                                                                                                                                                                                                                                                                                                               
0306040CUIT0030252525259000055  20180808FACTURA                  CR 0000000000000000000063063  000000000000000000000000000000000000                                                                                                                                                                                                                                                                                                                                                                                                                                                                                                                                                                                                                                                                                                                                               
0306040CUIT0030252525259000056  20180808FACTURA                  CR 0000000000000000000561977  000000000000000000000000000000000000                                                                                                                                                                                                                                                                                                                                                                                                                                                                                                                                                                                                                                                                                                                                               
0306040CUIT0030252525259000057  20180808FACTURA                  CR 0000000000000000000453871  000000000000000000000000000000000000                                                                                                                                                                                                                                                                                                                                                                                                                                                                                                                                                                                                                                                                                                                                               
0306040CUIT0030252525259000058  20180808FACTURA                  CR 0000000000000000000816515  000000000000000000000000000000000000                                                                                                                                                                                                                                                                                                                                                                                                                                                                                                                                                                                                                                                                                                                                               
0306040CUIT0030252525259000059  20180808FACTURA                  CR 0000000000000000000374428  000000000000000000000000000000000000                                                                                                                                                                                                                                                                                                                                                                                                                                                                                                                                                                                                                                                                                                                                               
0306040CUIT0030252525259000060  20180808FACTURA                  CR 0000000000000000000055676  000000000000000000000000000000000000                                                                                                                                                                                                                                                                                                                                                                                                                                                                                                                                                                                                                                                                                                                                               
0306040CUIT0030252525259000061  20180808FACTURA                  CR 0000000000000000000749047  000000000000000000000000000000000000                                                                                                                                                                                                                                                                                                                                                                                                                                                                                                                                                                                                                                                                                                                                               
0306040CUIT0030252525259000062  20180808FACTURA                  CR 0000000000000000000197347  000000000000000000000000000000000000                                                                                                                                                                                                                                                                                                                                                                                                                                                                                                                                                                                                                                                                                                                                               
0306040CUIT0030252525259000063  20180808FACTURA                  CR 0000000000000000000171990  000000000000000000000000000000000000                                                                                                                                                                                                                                                                                                                                                                                                                                                                                                                                                                                                                                                                                                                                               
0306040CUIT0030252525259000064  20180808FACTURA                  CR 0000000000000000000254138  000000000000000000000000000000000000                                                                                                                                                                                                                                                                                                                                                                                                                                                                                                                                                                                                                                                                                                                                               
0306040CUIT0030252525259000065  20180808FACTURA                  CR 0000000000000000000197899  000000000000000000000000000000000000                                                                                                                                                                                                                                                                                                                                                                                                                                                                                                                                                                                                                                                                                                                                               
0306040CUIT0030252525259000066  20180808FACTURA                  CR 0000000000000000000252255  000000000000000000000000000000000000                                                                                                                                                                                                                                                                                                                                                                                                                                                                                                                                                                                                                                                                                                                                               
0306040CUIT0030252525259000067  20180808FACTURA                  CR 0000000000000000000592442  000000000000000000000000000000000000                                                                                                                                                                                                                                                                                                                                                                                                                                                                                                                                                                                                                                                                                                                                               
0306060CUIT0030252525259000068X000100004458 000230537745742                                                                                                                                                                                                                                                                                                                                                                                                                                                                                                                                                                                                                                                                                                                                                                                                                       
0306070CUIT003025252525900006920180808Ret.IIBB Bs.As                        00000000344330000000300400000750000000002253000000000000000000000000000000000000CR                                                                                                                                                                                                                                                                                                                                                                                                                                                                                                                                                                                                                                                                                                                    
0306070CUIT003025252525900007020180808Ret.IIBB Bs.As                        00000000344330000000125460000750000000000941000000000000000000000000000000000000CR                                                                                                                                                                                                                                                                                                                                                                                                                                                                                                                                                                                                                                                                                                                    
0306070CUIT003025252525900007120180808Ret.IIBB Bs.As                        00000000344330000000374550000750000000002809000000000000000000000000000000000000CR                                                                                                                                                                                                                                                                                                                                                                                                                                                                                                                                                                                                                                                                                                                    
0306070CUIT003025252525900007220180808Ret.IIBB Bs.As                        00000000344330000000051480000750000000000386000000000000000000000000000000000000CR                                                                                                                                                                                                                                                                                                                                                                                                                                                                                                                                                                                                                                                                                                                    
0306070CUIT003025252525900007320180808Ret.IIBB Bs.As                        00000000344330000000447790000750000000003358000000000000000000000000000000000000CR                                                                                                                                                                                                                                                                                                                                                                                                                                                                                                                                                                                                                                                                                                                    
0306070CUIT003025252525900007420180808Ret.IIBB Bs.As                        00000000344330000000361650000750000000002712000000000000000000000000000000000000CR                                                                                                                                                                                                                                                                                                                                                                                                                                                                                                                                                                                                                                                                                                                    
0306070CUIT003025252525900007520180808Ret.IIBB Bs.As                        00000000344330000000650610000750000000004880000000000000000000000000000000000000CR                                                                                                                                                                                                                                                                                                                                                                                                                                                                                                                                                                                                                                                                                                                    
0306070CUIT003025252525900007620180808Ret.IIBB Bs.As                        00000000344330000000298350000750000000002238000000000000000000000000000000000000CR                                                                                                                                                                                                                                                                                                                                                                                                                                                                                                                                                                                                                                                                                                                    
0306070CUIT003025252525900007720180808Ret.IIBB Bs.As                        00000000344330000000045450000750000000000341000000000000000000000000000000000000CR                                                                                                                                                                                                                                                                                                                                                                                                                                                                                                                                                                                                                                                                                                                    
0306070CUIT003025252525900007820180808Ret.IIBB Bs.As                        00000000344330000000596850000750000000004476000000000000000000000000000000000000CR                                                                                                                                                                                                                                                                                                                                                                                                                                                                                                                                                                                                                                                                                                                    
0306070CUIT003025252525900007920180808Ret.IIBB Bs.As                        00000000344330000000161100000750000000001208000000000000000000000000000000000000CR                                                                                                                                                                                                                                                                                                                                                                                                                                                                                                                                                                                                                                                                                                                    
0306070CUIT003025252525900008020180808Ret.IIBB Bs.As                        00000000344330000000140400000750000000001053000000000000000000000000000000000000CR                                                                                                                                                                                                                                                                                                                                                                                                                                                                                                                                                                                                                                                                                                                    
0306070CUIT003025252525900008120180808Ret.IIBB Bs.As                        00000000344330000000202500000750000000001519000000000000000000000000000000000000CR                                                                                                                                                                                                                                                                                                                                                                                                                                                                                                                                                                                                                                                                                                                    
0306070CUIT003025252525900008220180808Ret.IIBB Bs.As                        00000000344330000000161550000750000000001212000000000000000000000000000000000000CR                                                                                                                                                                                                                                                                                                                                                                                                                                                                                                                                                                                                                                                                                                                    
0306070CUIT003025252525900008320180808Ret.IIBB Bs.As                        00000000344330000000201000000750000000001507000000000000000000000000000000000000CR                                                                                                                                                                                                                                                                                                                                                                                                                                                                                                                                                                                                                                                                                                                    
0306070CUIT003025252525900008420180808Ret.IIBB Bs.As                        00000000344330000000472065000750000000003540000000000000000000000000000000000000CR                                                                                                                                                                                                                                                                                                                                                                                                                                                                                                                                                                                                                                                                                                                    
0306090CUIT0030252525259000085C:\Proyectos De0000000000000051CUI30537745742CABRALES S.A.                              000000000000000000000000000000000000030537745742RIVADAVIA 2171                                                     02080                                                                                                              00                                                                                            00000000                            00000000                            00000000                                                                                                    00005099                                                                                                                                                                                                                         
0306020CUIT0030252525259000086000000000000021000051000000000199600                                            0000000000000                                            C:\Proyectos De           0000000000000                                        CUI2005319436300010000000000000000  0000000000000000                                                                                                                                                                                                                                                                                                                                                                                                                                                                                                                                                                        
0306040CUIT0030252525259000087  20180808FACTURA                  CR 0000000000000000000200000  000000000000000000000000000000000000                                                                                                                                                                                                                                                                                                                                                                                                                                                                                                                                                                                                                                                                                                                                               
0306060CUIT0030252525259000088X000100004459 000220053194363                                                                                                                                                                                                                                                                                                                                                                                                                                                                                                                                                                                                                                                                                                                                                                                                                       
0306070CUIT003025252525900008920180808Ret.IIBB Bs.As                        00000000004000000000200000000200000000000400000000000000000000000000000000000000CR                                                                                                                                                                                                                                                                                                                                                                                                                                                                                                                                                                                                                                                                                                                    
0306090CUIT0030252525259000090C:\Proyectos De0000000000000211CUI20053194363EDUARDO ERNESTO ZANOLI                     000000000000000000000000000000000000020053194363AV JUAN B JUSTO 5164                                               02080                                                                                                              00                                                                                            00000000                            00000000                            00000000                                                                                                    00005100                                                                                                                                                                                                                         
0306020CUIT0030252525259000091000000000000009000051010000005672722                                            0000000000000                                            C:\Proyectos De           0000000000000                                        CUI2308483073900010000000000000000  0000000000000000                                                                                                                                                                                                                                                                                                                                                                                                                                                                                                                                                                        
0306025CUIT0030252525259000092000000000000000000051010000001016142                                                                                                                             N                                                          000000000000000000000020180928CH 1 0000000000000                                                                                                                                                                                                                                                                                                                                                                                                                                                                                                                                                                          
0306025CUIT0030252525259000093000000000000000000051010000001015900                                                                                                                             N                                                          000000000000000000000020180924CH 1 0000000000000                                                                                                                                                                                                                                                                                                                                                                                                                                                                                                                                                                          
0306025CUIT0030252525259000094000000000000000000051010000001015900                                                                                                                             N                                                          000000000000000000000020180918CH 1 0000000000000                                                                                                                                                                                                                                                                                                                                                                                                                                                                                                                                                                          
0306025CUIT0030252525259000095000000000000000000051010000001270599                                                                                                                             N                                                          000000000000000000000020180911CH 1 0000000000000                                                                                                                                                                                                                                                                                                                                                                                                                                                                                                                                                                          
0306025CUIT0030252525259000096000000000000000000051010000001250000                                                                                                                             N                                                          000000000000000000000020180907CH 1 0000000000000                                                                                                                                                                                                                                                                                                                                                                                                                                                                                                                                                                          
0306025CUIT0030252525259000097000000000000000000051010000000104181                                                                                                                             N                                                          000000000000000000000020180920CH 1 0000000000000                                                                                                                                                                                                                                                                                                                                                                                                                                                                                                                                                                          
0306040CUIT0030252525259000098  20180808FACTURA                  CR 0000000000000000005672722  000000000000000000000000000000000000                                                                                                                                                                                                                                                                                                                                                                                                                                                                                                                                                                                                                                                                                                                                               
0306090CUIT0030252525259000099C:\Proyectos De0000000000000091CUI23084830739GRAFICA TUCUMAN                            000000000000000000000000000000000000023084830739TUCUMAN 3011                                                       02080                                                                                                              00                                                                                            00000000                            00000000                            00000000                                                                                                    00005101                                                                                                                                                                                                                         
0306020CUIT0030252525259000100000000000000595000051020000000496125                                            0000000000000                                            C:\Proyectos De           0000000000000                                        CUI3071199615600010000000000000000  0000000000000000                                                                                                                                                                                                                                                                                                                                                                                                                                                                                                                                                                        
0306025CUIT0030252525259000101000000000000000000051020000000434800                                                                                                                             N                                                          000000000000000000000020180822CH 1 0000000000000                                                                                                                                                                                                                                                                                                                                                                                                                                                                                                                                                                          
0306025CUIT0030252525259000102000000000000000000051020000000061325                                                                                                                             N                                                          000000000000000000000020180826CH 1 0000000000000                                                                                                                                                                                                                                                                                                                                                                                                                                                                                                                                                                          
0306040CUIT0030252525259000103  20180808FACTURA                  CR 0000000000000000000502250  000000000000000000000000000000000000                                                                                                                                                                                                                                                                                                                                                                                                                                                                                                                                                                                                                                                                                                                                               
0306060CUIT0030252525259000104X000100004460 000230711996156                                                                                                                                                                                                                                                                                                                                                                                                                                                                                                                                                                                                                                                                                                                                                                                                                       
0306070CUIT003025252525900010520180808Ret.IIBB Bs.As                        00000000061250000000490000001250000000006125000000000000000000000000000000000000CR                                                                                                                                                                                                                                                                                                                                                                                                                                                                                                                                                                                                                                                                                                                    
0306090CUIT0030252525259000106C:\Proyectos De0000000000005951CUI30711996156SURAZO SRL                                 000000000000000000000000000000000000030711996156JORGE NEWBERY 5005                                                 02080                                                                                                              00                                                                                            00000000                            00000000                            00000000                                                                                                    00005102                                                                                                                                                                                                                         
0306020CUIT0030252525259000107000000000000679000051030000001278837                                            0000000000000                                            C:\Proyectos De           0000000000000                                        CUI3071582366300010000000000000000  0000000000000000                                                                                                                                                                                                                                                                                                                                                                                                                                                                                                                                                                        
0306025CUIT0030252525259000108000000000000000000051030000001015900                                                                                                                             N                                                          000000000000000000000020180831CH 1 0000000000000                                                                                                                                                                                                                                                                                                                                                                                                                                                                                                                                                                          
0306025CUIT0030252525259000109000000000000000000051030000000262937                                                                                                                             N                                                          000000000000000000000020180912CH 1 0000000000000                                                                                                                                                                                                                                                                                                                                                                                                                                                                                                                                                                          
0306040CUIT0030252525259000110  20180808FACTURA                  CR 0000000000000000001297604  000000000000000000000000000000000000                                                                                                                                                                                                                                                                                                                                                                                                                                                                                                                                                                                                                                                                                                                                               
0306060CUIT0030252525259000111X000100004461 000230715823663                                                                                                                                                                                                                                                                                                                                                                                                                                                                                                                                                                                                                                                                                                                                                                                                                       
0306070CUIT003025252525900011220180808Ret.IIBB Bs.As                        00000000187670000001072400001750000000018767000000000000000000000000000000000000CR                                                                                                                                                                                                                                                                                                                                                                                                                                                                                                                                                                                                                                                                                                                    
0306090CUIT0030252525259000113C:\Proyectos De0000000000006791CUI30715823663BONDI PUBLICIDAD                           000000000000000000000000000000000000030715823663GARAY 2569                                                         02080                                                                                                              00                                                                                            00000000                            00000000                            00000000                                                                                                    00005103                                                                                                                                                                                                                         
0306020CUIT0030252525259000114000000000000417000051040000000117900                                            0000000000000                                            C:\Proyectos De           0000000000000                                        CUI2730296465900010000000000000000  0000000000000000                                                                                                                                                                                                                                                                                                                                                                                                                                                                                                                                                                        
0306040CUIT0030252525259000115  20180808FACTURA                  CR 0000000000000000000120000  000000000000000000000000000000000000                                                                                                                                                                                                                                                                                                                                                                                                                                                                                                                                                                                                                                                                                                                                               
0306060CUIT0030252525259000116X000100004462 000227302964659                                                                                                                                                                                                                                                                                                                                                                                                                                                                                                                                                                                                                                                                                                                                                                                                                       
